{
  "contractName": "SubWallet",
  "abi": [
    {
      "inputs": [],
      "stateMutability": "nonpayable",
      "type": "constructor"
    },
    {
      "anonymous": false,
      "inputs": [],
      "name": "ChangeOwner",
      "type": "event"
    },
    {
      "anonymous": false,
      "inputs": [
        {
          "indexed": false,
          "internalType": "address",
          "name": "",
          "type": "address"
        },
        {
          "indexed": false,
          "internalType": "address",
          "name": "",
          "type": "address"
        },
        {
          "indexed": false,
          "internalType": "uint256",
          "name": "",
          "type": "uint256"
        }
      ],
      "name": "Deposit",
      "type": "event"
    },
    {
      "anonymous": false,
      "inputs": [
        {
          "indexed": false,
          "internalType": "address",
          "name": "",
          "type": "address"
        },
        {
          "indexed": false,
          "internalType": "uint256",
          "name": "",
          "type": "uint256"
        }
      ],
      "name": "Receive",
      "type": "event"
    },
    {
      "anonymous": false,
      "inputs": [],
      "name": "ShortEnd",
      "type": "event"
    },
    {
      "anonymous": false,
      "inputs": [],
      "name": "ShortStart",
      "type": "event"
    },
    {
      "anonymous": false,
      "inputs": [
        {
          "indexed": false,
          "internalType": "address",
          "name": "",
          "type": "address"
        },
        {
          "indexed": false,
          "internalType": "uint256",
          "name": "",
          "type": "uint256"
        }
      ],
      "name": "Withdraw",
      "type": "event"
    },
    {
      "stateMutability": "payable",
      "type": "receive"
    },
    {
      "inputs": [
        {
          "internalType": "address",
          "name": "_initOwner",
          "type": "address"
        }
      ],
      "name": "initialize",
      "outputs": [],
      "stateMutability": "nonpayable",
      "type": "function"
    },
    {
      "inputs": [
        {
          "internalType": "address",
          "name": "_token",
          "type": "address"
        },
        {
          "internalType": "uint16",
          "name": "_mode",
          "type": "uint16"
        },
        {
          "internalType": "uint256",
          "name": "_amount",
          "type": "uint256"
        }
      ],
      "name": "approveEth",
      "outputs": [],
      "stateMutability": "nonpayable",
      "type": "function"
    },
    {
      "inputs": [
        {
          "internalType": "address",
          "name": "_token",
          "type": "address"
        },
        {
          "internalType": "uint16",
          "name": "_mode",
          "type": "uint16"
        },
        {
          "internalType": "uint256",
          "name": "_amount",
          "type": "uint256"
        }
      ],
      "name": "approveTo",
      "outputs": [],
      "stateMutability": "nonpayable",
      "type": "function"
    },
    {
      "inputs": [
        {
          "internalType": "address[]",
          "name": "_tokens",
          "type": "address[]"
        },
        {
          "internalType": "uint256",
          "name": "_amount",
          "type": "uint256"
        },
        {
          "internalType": "uint256",
          "name": "_ethAmount",
          "type": "uint256"
        }
      ],
      "name": "multiApproveTokens",
      "outputs": [],
      "stateMutability": "nonpayable",
      "type": "function"
    },
    {
      "inputs": [
        {
          "internalType": "address[]",
          "name": "_tokens",
          "type": "address[]"
        },
        {
          "internalType": "uint256",
          "name": "_amount",
          "type": "uint256"
        },
        {
          "internalType": "uint256",
          "name": "_ethAmount",
          "type": "uint256"
        }
      ],
      "name": "multiApproveEth",
      "outputs": [],
      "stateMutability": "nonpayable",
      "type": "function"
    },
    {
      "inputs": [
        {
          "internalType": "address",
          "name": "_token",
          "type": "address"
        },
        {
          "internalType": "uint256",
          "name": "_amount",
          "type": "uint256"
        }
      ],
      "name": "depositToken",
      "outputs": [],
      "stateMutability": "nonpayable",
      "type": "function"
    },
    {
      "inputs": [
        {
          "internalType": "address",
          "name": "_token",
          "type": "address"
        },
        {
          "internalType": "uint256",
          "name": "_amount",
          "type": "uint256"
        }
      ],
      "name": "withdrawToken",
      "outputs": [],
      "stateMutability": "nonpayable",
      "type": "function"
    },
    {
      "inputs": [
        {
          "internalType": "address",
          "name": "_collateralToken",
          "type": "address"
        },
        {
          "internalType": "uint256",
          "name": "_collateralAmount",
          "type": "uint256"
        },
        {
          "internalType": "uint256",
          "name": "_ethAmount",
          "type": "uint256"
        }
      ],
      "name": "shortStartETH",
      "outputs": [],
      "stateMutability": "nonpayable",
      "type": "function"
    },
    {
      "inputs": [
        {
          "internalType": "address",
          "name": "_collateralToken",
          "type": "address"
        },
        {
          "internalType": "uint256",
          "name": "_collateralAmount",
          "type": "uint256"
        },
        {
          "internalType": "address",
          "name": "_shortToken",
          "type": "address"
        },
        {
          "internalType": "uint256",
          "name": "_shortAmount",
          "type": "uint256"
        }
      ],
      "name": "shortStart",
      "outputs": [],
      "stateMutability": "nonpayable",
      "type": "function"
    },
    {
      "inputs": [],
      "name": "shortEndEth",
      "outputs": [],
      "stateMutability": "nonpayable",
      "type": "function"
    },
    {
      "inputs": [
        {
          "internalType": "address",
          "name": "_token",
          "type": "address"
        }
      ],
      "name": "getCollateral",
      "outputs": [
        {
          "internalType": "uint256",
          "name": "",
          "type": "uint256"
        }
      ],
      "stateMutability": "view",
      "type": "function"
    },
    {
      "inputs": [
        {
          "internalType": "address",
          "name": "_token",
          "type": "address"
        }
      ],
      "name": "getShort",
      "outputs": [
        {
          "internalType": "address",
          "name": "",
          "type": "address"
        },
        {
          "internalType": "uint256",
          "name": "",
          "type": "uint256"
        },
        {
          "internalType": "uint256",
          "name": "",
          "type": "uint256"
        }
      ],
      "stateMutability": "view",
      "type": "function"
    }
  ],
  "bytecode": "0x608060405234801561001057600080fd5b506001600060146101000a81548160ff0219169083151502179055506141d68061003b6000396000f3fe6080604052600436106100ab5760003560e01c80639e281a98116100645780639e281a9814610210578063a436071114610239578063b322423014610262578063b600749914610279578063be241896146102a2578063c4d66de8146102cb576100eb565b806317818489146100f05780631be13d3b14610119578063338b5dea1461014257806346a8aa911461016b578063685b034e146101945780639b56d6c9146101d3576100eb565b366100eb577fd6717f327e0cb88b4a97a7f67a453e9258252c34937ccbdd86de7cb840e7def333346040516100e1929190613001565b60405180910390a1005b600080fd5b3480156100fc57600080fd5b50610117600480360381019061011291906131ef565b6102f4565b005b34801561012557600080fd5b50610140600480360381019061013b9190613298565b61078b565b005b34801561014e57600080fd5b50610169600480360381019061016491906132eb565b610aa5565b005b34801561017757600080fd5b50610192600480360381019061018d91906131ef565b610bf5565b005b3480156101a057600080fd5b506101bb60048036038101906101b6919061332b565b6112f8565b6040516101ca93929190613358565b60405180910390f35b3480156101df57600080fd5b506101fa60048036038101906101f5919061332b565b6113d1565b604051610207919061338f565b60405180910390f35b34801561021c57600080fd5b50610237600480360381019061023291906132eb565b61141a565b005b34801561024557600080fd5b50610260600480360381019061025b91906133aa565b611622565b005b34801561026e57600080fd5b50610277611a53565b005b34801561028557600080fd5b506102a0600480360381019061029b9190613298565b611f76565b005b3480156102ae57600080fd5b506102c960048036038101906102c491906133fd565b612290565b005b3480156102d757600080fd5b506102f260048036038101906102ed919061332b565b612326565b005b600160009054906101000a900473ffffffffffffffffffffffffffffffffffffffff1673ffffffffffffffffffffffffffffffffffffffff163373ffffffffffffffffffffffffffffffffffffffff1614610384576040517f08c379a000000000000000000000000000000000000000000000000000000000815260040161037b906134c1565b60405180910390fd5b60008060009054906101000a900473ffffffffffffffffffffffffffffffffffffffff1673ffffffffffffffffffffffffffffffffffffffff1663c8e1b0626040518163ffffffff1660e01b8152600401602060405180830381865afa1580156103f2573d6000803e3d6000fd5b505050506040513d601f19601f8201168201806040525081019061041691906134f6565b905060008060009054906101000a900473ffffffffffffffffffffffffffffffffffffffff1673ffffffffffffffffffffffffffffffffffffffff166313561b556040518163ffffffff1660e01b8152600401602060405180830381865afa158015610486573d6000803e3d6000fd5b505050506040513d601f19601f820116820180604052508101906104aa91906134f6565b905060005b85518110156107835760008682815181106104cd576104cc613523565b5b602002602001015173ffffffffffffffffffffffffffffffffffffffff1662030d408588604051602401610502929190613001565b6040516020818303038152906040527f095ea7b3000000000000000000000000000000000000000000000000000000007bffffffffffffffffffffffffffffffffffffffffffffffffffffffff19166020820180517bffffffffffffffffffffffffffffffffffffffffffffffffffffffff838183161783525050505060405161058c91906135cc565b60006040518083038160008787f1925050503d80600081146105ca576040519150601f19603f3d011682016040523d82523d6000602084013e6105cf565b606091505b5050905080610613576040517f08c379a000000000000000000000000000000000000000000000000000000000815260040161060a9061362f565b60405180910390fd5b600087838151811061062857610627613523565b5b602002602001015173ffffffffffffffffffffffffffffffffffffffff1662030d40858960405160240161065d929190613001565b6040516020818303038152906040527f095ea7b3000000000000000000000000000000000000000000000000000000007bffffffffffffffffffffffffffffffffffffffffffffffffffffffff19166020820180517bffffffffffffffffffffffffffffffffffffffffffffffffffffffff83818316178352505050506040516106e791906135cc565b60006040518083038160008787f1925050503d8060008114610725576040519150601f19603f3d011682016040523d82523d6000602084013e61072a565b606091505b505090508061076e576040517f08c379a00000000000000000000000000000000000000000000000000000000081526004016107659061369b565b60405180910390fd5b5050808061077b906136ea565b9150506104af565b505050505050565b600160009054906101000a900473ffffffffffffffffffffffffffffffffffffffff1673ffffffffffffffffffffffffffffffffffffffff163373ffffffffffffffffffffffffffffffffffffffff161461081b576040517f08c379a0000000000000000000000000000000000000000000000000000000008152600401610812906134c1565b60405180910390fd5b6000808361ffff16036108be5760008054906101000a900473ffffffffffffffffffffffffffffffffffffffff1673ffffffffffffffffffffffffffffffffffffffff166313561b556040518163ffffffff1660e01b8152600401602060405180830381865afa158015610893573d6000803e3d6000fd5b505050506040513d601f19601f820116820180604052508101906108b791906134f6565b905061095d565b60018361ffff160361095c5760008054906101000a900473ffffffffffffffffffffffffffffffffffffffff1673ffffffffffffffffffffffffffffffffffffffff1663c8e1b0626040518163ffffffff1660e01b8152600401602060405180830381865afa158015610935573d6000803e3d6000fd5b505050506040513d601f19601f8201168201806040525081019061095991906134f6565b90505b5b60008473ffffffffffffffffffffffffffffffffffffffff1662030d40838560405160240161098d929190613001565b6040516020818303038152906040527f095ea7b3000000000000000000000000000000000000000000000000000000007bffffffffffffffffffffffffffffffffffffffffffffffffffffffff19166020820180517bffffffffffffffffffffffffffffffffffffffffffffffffffffffff8381831617835250505050604051610a1791906135cc565b60006040518083038160008787f1925050503d8060008114610a55576040519150601f19603f3d011682016040523d82523d6000602084013e610a5a565b606091505b5050905080610a9e576040517f08c379a0000000000000000000000000000000000000000000000000000000008152600401610a959061377e565b60405180910390fd5b5050505050565b600160009054906101000a900473ffffffffffffffffffffffffffffffffffffffff1673ffffffffffffffffffffffffffffffffffffffff163373ffffffffffffffffffffffffffffffffffffffff1614610b35576040517f08c379a0000000000000000000000000000000000000000000000000000000008152600401610b2c906134c1565b60405180910390fd5b8173ffffffffffffffffffffffffffffffffffffffff166323b872dd3330846040518463ffffffff1660e01b8152600401610b729392919061379e565b6020604051808303816000875af1158015610b91573d6000803e3d6000fd5b505050506040513d601f19601f82011682018060405250810190610bb5919061380d565b507f5548c837ab068cf56a2c2479df0882a4922fd203edb7517321831d95078c5f62823383604051610be99392919061379e565b60405180910390a15050565b600160009054906101000a900473ffffffffffffffffffffffffffffffffffffffff1673ffffffffffffffffffffffffffffffffffffffff163373ffffffffffffffffffffffffffffffffffffffff1614610c85576040517f08c379a0000000000000000000000000000000000000000000000000000000008152600401610c7c906134c1565b60405180910390fd5b60008060009054906101000a900473ffffffffffffffffffffffffffffffffffffffff1673ffffffffffffffffffffffffffffffffffffffff1663c8e1b0626040518163ffffffff1660e01b8152600401602060405180830381865afa158015610cf3573d6000803e3d6000fd5b505050506040513d601f19601f82011682018060405250810190610d1791906134f6565b905060008060009054906101000a900473ffffffffffffffffffffffffffffffffffffffff1673ffffffffffffffffffffffffffffffffffffffff166313561b556040518163ffffffff1660e01b8152600401602060405180830381865afa158015610d87573d6000803e3d6000fd5b505050506040513d601f19601f82011682018060405250810190610dab91906134f6565b905060008060009054906101000a900473ffffffffffffffffffffffffffffffffffffffff1673ffffffffffffffffffffffffffffffffffffffff1663f63c13a46040518163ffffffff1660e01b8152600401602060405180830381865afa158015610e1b573d6000803e3d6000fd5b505050506040513d601f19601f82011682018060405250810190610e3f91906134f6565b905060008060009054906101000a900473ffffffffffffffffffffffffffffffffffffffff1673ffffffffffffffffffffffffffffffffffffffff166349585ec26040518163ffffffff1660e01b8152600401602060405180830381865afa158015610eaf573d6000803e3d6000fd5b505050506040513d601f19601f82011682018060405250810190610ed391906134f6565b905060005b87518110156111ac576000888281518110610ef657610ef5613523565b5b602002602001015173ffffffffffffffffffffffffffffffffffffffff1662030d40878a604051602401610f2b929190613001565b6040516020818303038152906040527f095ea7b3000000000000000000000000000000000000000000000000000000007bffffffffffffffffffffffffffffffffffffffffffffffffffffffff19166020820180517bffffffffffffffffffffffffffffffffffffffffffffffffffffffff8381831617835250505050604051610fb591906135cc565b60006040518083038160008787f1925050503d8060008114610ff3576040519150601f19603f3d011682016040523d82523d6000602084013e610ff8565b606091505b505090508061103c576040517f08c379a00000000000000000000000000000000000000000000000000000000081526004016110339061362f565b60405180910390fd5b600089838151811061105157611050613523565b5b602002602001015173ffffffffffffffffffffffffffffffffffffffff1662030d40878b604051602401611086929190613001565b6040516020818303038152906040527f095ea7b3000000000000000000000000000000000000000000000000000000007bffffffffffffffffffffffffffffffffffffffffffffffffffffffff19166020820180517bffffffffffffffffffffffffffffffffffffffffffffffffffffffff838183161783525050505060405161111091906135cc565b60006040518083038160008787f1925050503d806000811461114e576040519150601f19603f3d011682016040523d82523d6000602084013e611153565b606091505b5050905080611197576040517f08c379a000000000000000000000000000000000000000000000000000000000815260040161118e9061369b565b60405180910390fd5b505080806111a4906136ea565b915050610ed8565b5060008273ffffffffffffffffffffffffffffffffffffffff1662030d4083886040516024016111dd929190613001565b6040516020818303038152906040527fc04a8a10000000000000000000000000000000000000000000000000000000007bffffffffffffffffffffffffffffffffffffffffffffffffffffffff19166020820180517bffffffffffffffffffffffffffffffffffffffffffffffffffffffff838183161783525050505060405161126791906135cc565b60006040518083038160008787f1925050503d80600081146112a5576040519150601f19603f3d011682016040523d82523d6000602084013e6112aa565b606091505b50509050806112ee576040517f08c379a00000000000000000000000000000000000000000000000000000000081526004016112e590613886565b60405180910390fd5b5050505050505050565b600080600080600360008673ffffffffffffffffffffffffffffffffffffffff1673ffffffffffffffffffffffffffffffffffffffff1681526020019081526020016000206040518060600160405290816000820160009054906101000a900473ffffffffffffffffffffffffffffffffffffffff1673ffffffffffffffffffffffffffffffffffffffff1673ffffffffffffffffffffffffffffffffffffffff168152602001600182015481526020016002820154815250509050806000015181602001518260400151935093509350509193909250565b6000600260008373ffffffffffffffffffffffffffffffffffffffff1673ffffffffffffffffffffffffffffffffffffffff168152602001908152602001600020549050919050565b600160009054906101000a900473ffffffffffffffffffffffffffffffffffffffff1673ffffffffffffffffffffffffffffffffffffffff163373ffffffffffffffffffffffffffffffffffffffff16146114aa576040517f08c379a00000000000000000000000000000000000000000000000000000000081526004016114a1906134c1565b60405180910390fd5b808273ffffffffffffffffffffffffffffffffffffffff166370a08231306040518263ffffffff1660e01b81526004016114e491906138a6565b602060405180830381865afa158015611501573d6000803e3d6000fd5b505050506040513d601f19601f8201168201806040525081019061152591906138d6565b1015611566576040517f08c379a000000000000000000000000000000000000000000000000000000000815260040161155d9061394f565b60405180910390fd5b8173ffffffffffffffffffffffffffffffffffffffff1663a9059cbb33836040518363ffffffff1660e01b81526004016115a1929190613001565b6020604051808303816000875af11580156115c0573d6000803e3d6000fd5b505050506040513d601f19601f820116820180604052508101906115e4919061380d565b507f884edad9ce6fa2440d8a54cc123490eb96d2768479d49ff9c7366125a94243648282604051611616929190613001565b60405180910390a15050565b600160009054906101000a900473ffffffffffffffffffffffffffffffffffffffff1673ffffffffffffffffffffffffffffffffffffffff163373ffffffffffffffffffffffffffffffffffffffff16146116b2576040517f08c379a00000000000000000000000000000000000000000000000000000000081526004016116a9906134c1565b60405180910390fd5b60008060009054906101000a900473ffffffffffffffffffffffffffffffffffffffff1673ffffffffffffffffffffffffffffffffffffffff166313561b556040518163ffffffff1660e01b8152600401602060405180830381865afa158015611720573d6000803e3d6000fd5b505050506040513d601f19601f8201168201806040525081019061174491906134f6565b90506000611753828686612491565b905080611795576040517f08c379a000000000000000000000000000000000000000000000000000000000815260040161178c906139bb565b60405180910390fd5b83600260008773ffffffffffffffffffffffffffffffffffffffff1673ffffffffffffffffffffffffffffffffffffffff1681526020019081526020016000208190555060008060009054906101000a900473ffffffffffffffffffffffffffffffffffffffff1673ffffffffffffffffffffffffffffffffffffffff166349585ec26040518163ffffffff1660e01b8152600401602060405180830381865afa158015611847573d6000803e3d6000fd5b505050506040513d601f19601f8201168201806040525081019061186b91906134f6565b9050600061187a828587612517565b9050806118bc576040517f08c379a00000000000000000000000000000000000000000000000000000000081526004016118b390613a27565b60405180910390fd5b60008060009054906101000a900473ffffffffffffffffffffffffffffffffffffffff1673ffffffffffffffffffffffffffffffffffffffff1663c8e1b0626040518163ffffffff1660e01b8152600401602060405180830381865afa15801561192a573d6000803e3d6000fd5b505050506040513d601f19601f8201168201806040525081019061194e91906134f6565b9050600061195d828a8961259e565b6001815181106119705761196f613523565b5b6020026020010151905060405180606001604052808a73ffffffffffffffffffffffffffffffffffffffff16815260200188815260200182815250600360003073ffffffffffffffffffffffffffffffffffffffff1673ffffffffffffffffffffffffffffffffffffffff16815260200190815260200160002060008201518160000160006101000a81548173ffffffffffffffffffffffffffffffffffffffff021916908373ffffffffffffffffffffffffffffffffffffffff1602179055506020820151816001015560408201518160020155905050505050505050505050565b600160009054906101000a900473ffffffffffffffffffffffffffffffffffffffff1673ffffffffffffffffffffffffffffffffffffffff163373ffffffffffffffffffffffffffffffffffffffff1614611ae3576040517f08c379a0000000000000000000000000000000000000000000000000000000008152600401611ada906134c1565b60405180910390fd5b6000600360003073ffffffffffffffffffffffffffffffffffffffff1673ffffffffffffffffffffffffffffffffffffffff1681526020019081526020016000206040518060600160405290816000820160009054906101000a900473ffffffffffffffffffffffffffffffffffffffff1673ffffffffffffffffffffffffffffffffffffffff1673ffffffffffffffffffffffffffffffffffffffff16815260200160018201548152602001600282015481525050905060008060009054906101000a900473ffffffffffffffffffffffffffffffffffffffff1673ffffffffffffffffffffffffffffffffffffffff1663c8e1b0626040518163ffffffff1660e01b8152600401602060405180830381865afa158015611c09573d6000803e3d6000fd5b505050506040513d601f19601f82011682018060405250810190611c2d91906134f6565b9050611c42818360000151846020015161282d565b5060008060009054906101000a900473ffffffffffffffffffffffffffffffffffffffff1673ffffffffffffffffffffffffffffffffffffffff166349585ec26040518163ffffffff1660e01b8152600401602060405180830381865afa158015611cb1573d6000803e3d6000fd5b505050506040513d601f19601f82011682018060405250810190611cd591906134f6565b905060008060009054906101000a900473ffffffffffffffffffffffffffffffffffffffff1673ffffffffffffffffffffffffffffffffffffffff166313561b556040518163ffffffff1660e01b8152600401602060405180830381865afa158015611d45573d6000803e3d6000fd5b505050506040513d601f19601f82011682018060405250810190611d6991906134f6565b90506000611d7c83838760200151612abd565b905080611dbe576040517f08c379a0000000000000000000000000000000000000000000000000000000008152600401611db590613a93565b60405180910390fd5b6000611e12838760000151600260008a6000015173ffffffffffffffffffffffffffffffffffffffff1673ffffffffffffffffffffffffffffffffffffffff16815260200190815260200160002054612b44565b905080611e54576040517f08c379a0000000000000000000000000000000000000000000000000000000008152600401611e4b90613aff565b60405180910390fd5b600060026000886000015173ffffffffffffffffffffffffffffffffffffffff1673ffffffffffffffffffffffffffffffffffffffff168152602001908152602001600020819055506040518060600160405280600073ffffffffffffffffffffffffffffffffffffffff168152602001600081526020016000815250600360003073ffffffffffffffffffffffffffffffffffffffff1673ffffffffffffffffffffffffffffffffffffffff16815260200190815260200160002060008201518160000160006101000a81548173ffffffffffffffffffffffffffffffffffffffff021916908373ffffffffffffffffffffffffffffffffffffffff1602179055506020820151816001015560408201518160020155905050505050505050565b600160009054906101000a900473ffffffffffffffffffffffffffffffffffffffff1673ffffffffffffffffffffffffffffffffffffffff163373ffffffffffffffffffffffffffffffffffffffff1614612006576040517f08c379a0000000000000000000000000000000000000000000000000000000008152600401611ffd906134c1565b60405180910390fd5b6000808361ffff16036120a95760008054906101000a900473ffffffffffffffffffffffffffffffffffffffff1673ffffffffffffffffffffffffffffffffffffffff166313561b556040518163ffffffff1660e01b8152600401602060405180830381865afa15801561207e573d6000803e3d6000fd5b505050506040513d601f19601f820116820180604052508101906120a291906134f6565b9050612148565b60018361ffff16036121475760008054906101000a900473ffffffffffffffffffffffffffffffffffffffff1673ffffffffffffffffffffffffffffffffffffffff1663c8e1b0626040518163ffffffff1660e01b8152600401602060405180830381865afa158015612120573d6000803e3d6000fd5b505050506040513d601f19601f8201168201806040525081019061214491906134f6565b90505b5b60008473ffffffffffffffffffffffffffffffffffffffff1662030d408385604051602401612178929190613001565b6040516020818303038152906040527f095ea7b3000000000000000000000000000000000000000000000000000000007bffffffffffffffffffffffffffffffffffffffffffffffffffffffff19166020820180517bffffffffffffffffffffffffffffffffffffffffffffffffffffffff838183161783525050505060405161220291906135cc565b60006040518083038160008787f1925050503d8060008114612240576040519150601f19603f3d011682016040523d82523d6000602084013e612245565b606091505b5050905080612289576040517f08c379a00000000000000000000000000000000000000000000000000000000081526004016122809061377e565b60405180910390fd5b5050505050565b600160009054906101000a900473ffffffffffffffffffffffffffffffffffffffff1673ffffffffffffffffffffffffffffffffffffffff163373ffffffffffffffffffffffffffffffffffffffff1614612320576040517f08c379a0000000000000000000000000000000000000000000000000000000008152600401612317906134c1565b60405180910390fd5b50505050565b60001515600060149054906101000a900460ff1615151461237c576040517f08c379a000000000000000000000000000000000000000000000000000000000815260040161237390613b6b565b60405180910390fd5b600073ffffffffffffffffffffffffffffffffffffffff16600160009054906101000a900473ffffffffffffffffffffffffffffffffffffffff1673ffffffffffffffffffffffffffffffffffffffff161461240d576040517f08c379a000000000000000000000000000000000000000000000000000000000815260040161240490613bd7565b60405180910390fd5b336000806101000a81548173ffffffffffffffffffffffffffffffffffffffff021916908373ffffffffffffffffffffffffffffffffffffffff16021790555080600160006101000a81548173ffffffffffffffffffffffffffffffffffffffff021916908373ffffffffffffffffffffffffffffffffffffffff16021790555050565b60008373ffffffffffffffffffffffffffffffffffffffff1663e8eda9df84843060006040518563ffffffff1660e01b81526004016124d39493929190613c3c565b600060405180830381600087803b1580156124ed57600080fd5b505af19250505080156124fe575060015b61250b5760009050612510565b600190505b9392505050565b60008373ffffffffffffffffffffffffffffffffffffffff166366514c978484600260006040518563ffffffff1660e01b815260040161255a9493929190613cbc565b600060405180830381600087803b15801561257457600080fd5b505af1925050508015612585575060015b6125925760009050612597565b600190505b9392505050565b606060006125ad858585612bd9565b6001815181106125c0576125bf613523565b5b602002602001015190506000600267ffffffffffffffff8111156125e7576125e6613054565b5b6040519080825280602002602001820160405280156126155781602001602082028036833780820191505090505b5090508573ffffffffffffffffffffffffffffffffffffffff1663ad5c46486040518163ffffffff1660e01b8152600401602060405180830381865afa158015612663573d6000803e3d6000fd5b505050506040513d601f19601f8201168201806040525081019061268791906134f6565b8160008151811061269b5761269a613523565b5b602002602001019073ffffffffffffffffffffffffffffffffffffffff16908173ffffffffffffffffffffffffffffffffffffffff168152505084816001815181106126ea576126e9613523565b5b602002602001019073ffffffffffffffffffffffffffffffffffffffff16908173ffffffffffffffffffffffffffffffffffffffff168152505060006064426127339190613d01565b905060008773ffffffffffffffffffffffffffffffffffffffff16637ff36ab587868630876040518663ffffffff1660e01b81526004016127779493929190613e6a565b60006040518083038185885af1158015612795573d6000803e3d6000fd5b50505050506040513d6000823e3d601f19601f820116820180604052508101906127bf9190613f79565b90506000816000815181106127d7576127d6613523565b5b60200260200101510361281f576040517f08c379a00000000000000000000000000000000000000000000000000000000081526004016128169061400e565b60405180910390fd5b809450505050509392505050565b6060600061283c858585612dc0565b60008151811061284f5761284e613523565b5b602002602001015190506000600267ffffffffffffffff81111561287657612875613054565b5b6040519080825280602002602001820160405280156128a45781602001602082028036833780820191505090505b50905084816000815181106128bc576128bb613523565b5b602002602001019073ffffffffffffffffffffffffffffffffffffffff16908173ffffffffffffffffffffffffffffffffffffffff16815250508573ffffffffffffffffffffffffffffffffffffffff1663ad5c46486040518163ffffffff1660e01b8152600401602060405180830381865afa158015612941573d6000803e3d6000fd5b505050506040513d601f19601f8201168201806040525081019061296591906134f6565b8160018151811061297957612978613523565b5b602002602001019073ffffffffffffffffffffffffffffffffffffffff16908173ffffffffffffffffffffffffffffffffffffffff168152505060006064426129c29190613d01565b905060008773ffffffffffffffffffffffffffffffffffffffff166318cbafe585888630876040518663ffffffff1660e01b8152600401612a0795949392919061402e565b6000604051808303816000875af1158015612a26573d6000803e3d6000fd5b505050506040513d6000823e3d601f19601f82011682018060405250810190612a4f9190613f79565b9050600081600081518110612a6757612a66613523565b5b602002602001015103612aaf576040517f08c379a0000000000000000000000000000000000000000000000000000000008152600401612aa6906140d4565b60405180910390fd5b809450505050509392505050565b60008373ffffffffffffffffffffffffffffffffffffffff166302c5fcf88385856002306040518663ffffffff1660e01b8152600401612b0094939291906140f4565b6000604051808303818588803b158015612b1957600080fd5b505af193505050508015612b2b575060015b612b385760009050612b3d565b600190505b9392505050565b60008373ffffffffffffffffffffffffffffffffffffffff166369328dec8484306040518463ffffffff1660e01b8152600401612b8393929190614139565b6020604051808303816000875af1925050508015612bbf57506040513d601f19601f82011682018060405250810190612bbc91906138d6565b60015b612bcc5760009050612bd2565b50600190505b9392505050565b60606000600267ffffffffffffffff811115612bf857612bf7613054565b5b604051908082528060200260200182016040528015612c265781602001602082028036833780820191505090505b5090508473ffffffffffffffffffffffffffffffffffffffff1663ad5c46486040518163ffffffff1660e01b8152600401602060405180830381865afa158015612c74573d6000803e3d6000fd5b505050506040513d601f19601f82011682018060405250810190612c9891906134f6565b81600081518110612cac57612cab613523565b5b602002602001019073ffffffffffffffffffffffffffffffffffffffff16908173ffffffffffffffffffffffffffffffffffffffff16815250508381600181518110612cfb57612cfa613523565b5b602002602001019073ffffffffffffffffffffffffffffffffffffffff16908173ffffffffffffffffffffffffffffffffffffffff16815250508473ffffffffffffffffffffffffffffffffffffffff1663d06ca61f84836040518363ffffffff1660e01b8152600401612d70929190614170565b600060405180830381865afa158015612d8d573d6000803e3d6000fd5b505050506040513d6000823e3d601f19601f82011682018060405250810190612db69190613f79565b9150509392505050565b60606000600267ffffffffffffffff811115612ddf57612dde613054565b5b604051908082528060200260200182016040528015612e0d5781602001602082028036833780820191505090505b5090508381600081518110612e2557612e24613523565b5b602002602001019073ffffffffffffffffffffffffffffffffffffffff16908173ffffffffffffffffffffffffffffffffffffffff16815250508473ffffffffffffffffffffffffffffffffffffffff1663ad5c46486040518163ffffffff1660e01b8152600401602060405180830381865afa158015612eaa573d6000803e3d6000fd5b505050506040513d601f19601f82011682018060405250810190612ece91906134f6565b81600181518110612ee257612ee1613523565b5b602002602001019073ffffffffffffffffffffffffffffffffffffffff16908173ffffffffffffffffffffffffffffffffffffffff16815250508473ffffffffffffffffffffffffffffffffffffffff16631f00ca7484836040518363ffffffff1660e01b8152600401612f57929190614170565b600060405180830381865afa158015612f74573d6000803e3d6000fd5b505050506040513d6000823e3d601f19601f82011682018060405250810190612f9d9190613f79565b9150509392505050565b600073ffffffffffffffffffffffffffffffffffffffff82169050919050565b6000612fd282612fa7565b9050919050565b612fe281612fc7565b82525050565b6000819050919050565b612ffb81612fe8565b82525050565b60006040820190506130166000830185612fd9565b6130236020830184612ff2565b9392505050565b6000604051905090565b600080fd5b600080fd5b600080fd5b6000601f19601f8301169050919050565b7f4e487b7100000000000000000000000000000000000000000000000000000000600052604160045260246000fd5b61308c82613043565b810181811067ffffffffffffffff821117156130ab576130aa613054565b5b80604052505050565b60006130be61302a565b90506130ca8282613083565b919050565b600067ffffffffffffffff8211156130ea576130e9613054565b5b602082029050602081019050919050565b600080fd5b61310981612fc7565b811461311457600080fd5b50565b60008135905061312681613100565b92915050565b600061313f61313a846130cf565b6130b4565b90508083825260208201905060208402830185811115613162576131616130fb565b5b835b8181101561318b57806131778882613117565b845260208401935050602081019050613164565b5050509392505050565b600082601f8301126131aa576131a961303e565b5b81356131ba84826020860161312c565b91505092915050565b6131cc81612fe8565b81146131d757600080fd5b50565b6000813590506131e9816131c3565b92915050565b60008060006060848603121561320857613207613034565b5b600084013567ffffffffffffffff81111561322657613225613039565b5b61323286828701613195565b9350506020613243868287016131da565b9250506040613254868287016131da565b9150509250925092565b600061ffff82169050919050565b6132758161325e565b811461328057600080fd5b50565b6000813590506132928161326c565b92915050565b6000806000606084860312156132b1576132b0613034565b5b60006132bf86828701613117565b93505060206132d086828701613283565b92505060406132e1868287016131da565b9150509250925092565b6000806040838503121561330257613301613034565b5b600061331085828601613117565b9250506020613321858286016131da565b9150509250929050565b60006020828403121561334157613340613034565b5b600061334f84828501613117565b91505092915050565b600060608201905061336d6000830186612fd9565b61337a6020830185612ff2565b6133876040830184612ff2565b949350505050565b60006020820190506133a46000830184612ff2565b92915050565b6000806000606084860312156133c3576133c2613034565b5b60006133d186828701613117565b93505060206133e2868287016131da565b92505060406133f3868287016131da565b9150509250925092565b6000806000806080858703121561341757613416613034565b5b600061342587828801613117565b9450506020613436878288016131da565b935050604061344787828801613117565b9250506060613458878288016131da565b91505092959194509250565b600082825260208201905092915050565b7f4552524f523a204f6e6c79204f776e6572000000000000000000000000000000600082015250565b60006134ab601183613464565b91506134b682613475565b602082019050919050565b600060208201905081810360008301526134da8161349e565b9050919050565b6000815190506134f081613100565b92915050565b60006020828403121561350c5761350b613034565b5b600061351a848285016134e1565b91505092915050565b7f4e487b7100000000000000000000000000000000000000000000000000000000600052603260045260246000fd5b600081519050919050565b600081905092915050565b60005b8381101561358657808201518184015260208101905061356b565b83811115613595576000848401525b50505050565b60006135a682613552565b6135b0818561355d565b93506135c0818560208601613568565b80840191505092915050565b60006135d8828461359b565b915081905092915050565b7f556e69204661696c656400000000000000000000000000000000000000000000600082015250565b6000613619600a83613464565b9150613624826135e3565b602082019050919050565b600060208201905081810360008301526136488161360c565b9050919050565b7f506f6f6c204661696c6564000000000000000000000000000000000000000000600082015250565b6000613685600b83613464565b91506136908261364f565b602082019050919050565b600060208201905081810360008301526136b481613678565b9050919050565b7f4e487b7100000000000000000000000000000000000000000000000000000000600052601160045260246000fd5b60006136f582612fe8565b91507fffffffffffffffffffffffffffffffffffffffffffffffffffffffffffffffff8203613727576137266136bb565b5b600182019050919050565b7f4641494c45440000000000000000000000000000000000000000000000000000600082015250565b6000613768600683613464565b915061377382613732565b602082019050919050565b600060208201905081810360008301526137978161375b565b9050919050565b60006060820190506137b36000830186612fd9565b6137c06020830185612fd9565b6137cd6040830184612ff2565b949350505050565b60008115159050919050565b6137ea816137d5565b81146137f557600080fd5b50565b600081519050613807816137e1565b92915050565b60006020828403121561382357613822613034565b5b6000613831848285016137f8565b91505092915050565b7f416c6c6f77204661696c65640000000000000000000000000000000000000000600082015250565b6000613870600c83613464565b915061387b8261383a565b602082019050919050565b6000602082019050818103600083015261389f81613863565b9050919050565b60006020820190506138bb6000830184612fd9565b92915050565b6000815190506138d0816131c3565b92915050565b6000602082840312156138ec576138eb613034565b5b60006138fa848285016138c1565b91505092915050565b7f4e6f7420656e6f75676820746f6b656e00000000000000000000000000000000600082015250565b6000613939601083613464565b915061394482613903565b602082019050919050565b600060208201905081810360008301526139688161392c565b9050919050565b7f537570706c79204661696c656400000000000000000000000000000000000000600082015250565b60006139a5600d83613464565b91506139b08261396f565b602082019050919050565b600060208201905081810360008301526139d481613998565b9050919050565b7f426f72726f77204661696c656400000000000000000000000000000000000000600082015250565b6000613a11600d83613464565b9150613a1c826139db565b602082019050919050565b60006020820190508181036000830152613a4081613a04565b9050919050565b7f5265706179204661696c00000000000000000000000000000000000000000000600082015250565b6000613a7d600a83613464565b9150613a8882613a47565b602082019050919050565b60006020820190508181036000830152613aac81613a70565b9050919050565b7f5769746864726177204661696c00000000000000000000000000000000000000600082015250565b6000613ae9600d83613464565b9150613af482613ab3565b602082019050919050565b60006020820190508181036000830152613b1881613adc565b9050919050565b7f5468697320697320746865206261736520636f6e747261637400000000000000600082015250565b6000613b55601983613464565b9150613b6082613b1f565b602082019050919050565b60006020820190508181036000830152613b8481613b48565b9050919050565b7f416c726561647920696e697469616c697a656400000000000000000000000000600082015250565b6000613bc1601383613464565b9150613bcc82613b8b565b602082019050919050565b60006020820190508181036000830152613bf081613bb4565b9050919050565b6000819050919050565b6000819050919050565b6000613c26613c21613c1c84613bf7565b613c01565b61325e565b9050919050565b613c3681613c0b565b82525050565b6000608082019050613c516000830187612fd9565b613c5e6020830186612ff2565b613c6b6040830185612fd9565b613c786060830184613c2d565b95945050505050565b6000819050919050565b6000613ca6613ca1613c9c84613c81565b613c01565b612fe8565b9050919050565b613cb681613c8b565b82525050565b6000608082019050613cd16000830187612fd9565b613cde6020830186612ff2565b613ceb6040830185613cad565b613cf86060830184613c2d565b95945050505050565b6000613d0c82612fe8565b9150613d1783612fe8565b9250827fffffffffffffffffffffffffffffffffffffffffffffffffffffffffffffffff03821115613d4c57613d4b6136bb565b5b828201905092915050565b600081519050919050565b600082825260208201905092915050565b6000819050602082019050919050565b613d8c81612fc7565b82525050565b6000613d9e8383613d83565b60208301905092915050565b6000602082019050919050565b6000613dc282613d57565b613dcc8185613d62565b9350613dd783613d73565b8060005b83811015613e08578151613def8882613d92565b9750613dfa83613daa565b925050600181019050613ddb565b5085935050505092915050565b6000613e30613e2b613e2684612fa7565b613c01565b612fa7565b9050919050565b6000613e4282613e15565b9050919050565b6000613e5482613e37565b9050919050565b613e6481613e49565b82525050565b6000608082019050613e7f6000830187612ff2565b8181036020830152613e918186613db7565b9050613ea06040830185613e5b565b613ead6060830184612ff2565b95945050505050565b600067ffffffffffffffff821115613ed157613ed0613054565b5b602082029050602081019050919050565b6000613ef5613ef084613eb6565b6130b4565b90508083825260208201905060208402830185811115613f1857613f176130fb565b5b835b81811015613f415780613f2d88826138c1565b845260208401935050602081019050613f1a565b5050509392505050565b600082601f830112613f6057613f5f61303e565b5b8151613f70848260208601613ee2565b91505092915050565b600060208284031215613f8f57613f8e613034565b5b600082015167ffffffffffffffff811115613fad57613fac613039565b5b613fb984828501613f4b565b91505092915050565b7f455448203d3e20544f4b454e204641494c000000000000000000000000000000600082015250565b6000613ff8601183613464565b915061400382613fc2565b602082019050919050565b6000602082019050818103600083015261402781613feb565b9050919050565b600060a0820190506140436000830188612ff2565b6140506020830187612ff2565b81810360408301526140628186613db7565b90506140716060830185612fd9565b61407e6080830184612ff2565b9695505050505050565b7f544f4b454e203d3e20455448204641494c000000000000000000000000000000600082015250565b60006140be601183613464565b91506140c982614088565b602082019050919050565b600060208201905081810360008301526140ed816140b1565b9050919050565b60006080820190506141096000830187612fd9565b6141166020830186612ff2565b6141236040830185613cad565b6141306060830184612fd9565b95945050505050565b600060608201905061414e6000830186612fd9565b61415b6020830185612ff2565b6141686040830184612fd9565b949350505050565b60006040820190506141856000830185612ff2565b81810360208301526141978184613db7565b9050939250505056fea2646970667358221220fdf130468c17977754346f086499b54249634a4790e784224c41d5bf2185367364736f6c634300080e0033",
  "immutableReferences": {},
  "source": "// SPDX-License-Identifier: MIT\r\npragma solidity >=0.7.0 <0.9.0;\r\n\r\nimport \"@openzeppelin/contracts/access/Ownable.sol\";\r\nimport \"@openzeppelin/contracts/token/ERC20/utils/SafeERC20.sol\";\r\n\r\ninterface Factory {\r\n    function getUni() external view returns (address);\r\n\r\n    function getAaveAllow() external view returns (address);\r\n\r\n    function getAaveEth() external view returns (address);\r\n\r\n    function getAavePool() external view returns (address);\r\n\r\n    function getCommissionFee() external view returns (address);\r\n}\r\n\r\ninterface UniswapV2Router {\r\n    function WETH() external pure returns (address);\r\n\r\n    function getAmountsOut(uint amountIn, address[] memory path) external view returns (uint[] memory amounts);\r\n\r\n    function getAmountsIn(uint amountOut, address[] memory path) external view returns (uint[] memory amounts);\r\n\r\n    // ETH to DAI\r\n    function swapExactETHForTokens(uint amountOutMin, address[] calldata path, address to, uint deadline)\r\n    external\r\n    payable\r\n    returns (uint[] memory amounts);\r\n\r\n    // DAI to ETH\r\n    function swapExactTokensForETH(uint amountIn, uint amountOutMin, address[] calldata path, address to, uint deadline)\r\n    external\r\n    returns (uint[] memory amounts);\r\n}\r\n\r\ninterface AaveETHRouter {\r\n    function depositETH(\r\n        address lendingPool,\r\n        address onBehalfOf,\r\n        uint16 referralCode\r\n    ) external payable;\r\n\r\n    function withdrawETH(\r\n        address lendingPool,\r\n        uint256 amount,\r\n        address onBehalfOf\r\n    ) external;\r\n\r\n    function repayETH(\r\n        address lendingPool,\r\n        uint256 amount,\r\n        uint256 rateMode,\r\n        address onBehalfOf\r\n    ) external payable;\r\n\r\n    function borrowETH(\r\n        address lendingPool,\r\n        uint256 amount,\r\n        uint256 interesRateMode,\r\n        uint16 referralCode\r\n    ) external;\r\n}\r\n\r\ninterface AavePoolRouter {\r\n    function deposit(\r\n        address asset,\r\n        uint256 amount,\r\n        address onBehalfOf,\r\n        uint16 referralCode\r\n    ) external;\r\n\r\n    function withdraw(\r\n        address asset,\r\n        uint256 amount,\r\n        address to\r\n    ) external returns (uint256);\r\n\r\n    function borrow(\r\n        address asset,\r\n        uint256 amount,\r\n        uint256 interestRateMode,\r\n        uint16 referralCode,\r\n        address onBehalfOf\r\n    ) external;\r\n\r\n    function repay(\r\n        address asset,\r\n        uint256 amount,\r\n        uint256 rateMode,\r\n        address onBehalfOf\r\n    ) external returns (uint256);\r\n}\r\n\r\ncontract SubWallet {\r\n    // Events\r\n    event Deposit(address, address, uint256);\r\n    event Withdraw(address, uint256);\r\n    event ShortStart();\r\n    event ShortEnd();\r\n    event ChangeOwner();\r\n    event Receive(address, uint256);\r\n\r\n    // Convertor\r\n    using SafeERC20 for IERC20;\r\n\r\n    // Clone\r\n    // -------------------------------------------------------------------------\r\n    Factory private _factory;\r\n    bool private _isBase;\r\n\r\n    address private _owner;\r\n    modifier onlyOwner() {\r\n        require(msg.sender == _owner, \"ERROR: Only Owner\");\r\n        _;\r\n    }\r\n\r\n    constructor() {// base contract\r\n        _isBase = true;\r\n    }\r\n\r\n    // only use at first\r\n    function initialize(address _initOwner) external {\r\n        require(_isBase == false, \"This is the base contract\");\r\n        require(_owner == address(0), \"Already initialized\");\r\n        _factory = Factory(msg.sender);\r\n        _owner = _initOwner;\r\n    }\r\n\r\n    // Wallet Field\r\n    // -------------------------------------------------------------------------\r\n    // User Info\r\n    mapping(address => uint256) collateralList; // DepositToken => Collateral Amount\r\n    mapping(address => Short) shortList; // ShortToken => Short Amount\r\n    Commission[] commissions; // CollateralToken => Commission\r\n\r\n    struct Short {\r\n        address token; //  \r\n        uint256 amount; //   ETH\r\n        uint256 price; //   Token /    \r\n    }\r\n\r\n    struct Commission {\r\n        address token;\r\n        uint256 fee;\r\n    }\r\n\r\n    // Token action\r\n    // -------------------------------------------------------------------------\r\n    function approveEth(address _token, uint16 _mode, uint _amount) external onlyOwner {\r\n        address to;\r\n        if (_mode == 0) {\r\n            to = _factory.getAavePool();\r\n        } else if (_mode == 1) {\r\n            to = _factory.getUni();\r\n        }\r\n        (bool success,) = address(_token).call{gas : 200000}(\r\n            abi.encodeWithSignature(\"approve(address,uint256)\", to, _amount)\r\n        );\r\n        require(success, \"FAILED\");\r\n    }\r\n\r\n    function approveTo(address _token, uint16 _mode, uint _amount) external onlyOwner {\r\n        address to;\r\n        if (_mode == 0) {\r\n            to = _factory.getAavePool();\r\n        } else if (_mode == 1) {\r\n            to = _factory.getUni();\r\n        }\r\n        (bool success,) = address(_token).call{gas : 200000}(\r\n            abi.encodeWithSignature(\"approve(address,uint256)\", to, _amount)\r\n        );\r\n        require(success, \"FAILED\");\r\n    }\r\n\r\n    function multiApproveTokens(address[] memory _tokens, uint256 _amount, uint256 _ethAmount) external onlyOwner {\r\n        address uniswap = _factory.getUni();\r\n        address aavePool = _factory.getAavePool();\r\n\r\n        for (uint i = 0; i < _tokens.length; i++) {\r\n            (bool sucUni,) = address(_tokens[i]).call{gas : 200000}(\r\n                abi.encodeWithSignature(\"approve(address,uint256)\", uniswap, _amount)\r\n            );\r\n            require(sucUni, \"Uni Failed\");\r\n            (bool sucPool,) = address(_tokens[i]).call{gas : 200000}(\r\n                abi.encodeWithSignature(\"approve(address,uint256)\", aavePool, _amount)\r\n            );\r\n            require(sucPool, \"Pool Failed\");\r\n        }\r\n    }\r\n\r\n    function multiApproveEth(address[] memory _tokens, uint256 _amount, uint256 _ethAmount) external onlyOwner {\r\n        address uniswap = _factory.getUni();\r\n        address aavePool = _factory.getAavePool();\r\n        address aaveAllow = _factory.getAaveAllow();\r\n        address aaveEth = _factory.getAaveEth();\r\n\r\n        for (uint i = 0; i < _tokens.length; i++) {\r\n            (bool sucUni,) = address(_tokens[i]).call{gas : 200000}(\r\n                abi.encodeWithSignature(\"approve(address,uint256)\", uniswap, _amount)\r\n            );\r\n            require(sucUni, \"Uni Failed\");\r\n            (bool sucPool,) = address(_tokens[i]).call{gas : 200000}(\r\n                abi.encodeWithSignature(\"approve(address,uint256)\", aavePool, _amount)\r\n            );\r\n            require(sucPool, \"Pool Failed\");\r\n        }\r\n\r\n        (bool sucAllow,) = aaveAllow.call{gas : 200000}(\r\n            abi.encodeWithSignature(\"approveDelegation(address,uint256)\", aaveEth, _ethAmount)\r\n        );\r\n        require(sucAllow, \"Allow Failed\");\r\n    }\r\n\r\n    function depositToken(address _token, uint256 _amount) external onlyOwner {\r\n        IERC20(_token).transferFrom(msg.sender, address(this), _amount);\r\n        emit Deposit(_token, msg.sender, _amount);\r\n    }\r\n\r\n    function withdrawToken(address _token, uint256 _amount) external onlyOwner {\r\n        require(IERC20(_token).balanceOf(address(this)) >= _amount, \"Not enough token\");\r\n        IERC20(_token).transfer(msg.sender, _amount);\r\n        emit Withdraw(_token, _amount);\r\n    }\r\n\r\n    // Product action\r\n    // -------------------------------------------------------------------------\r\n    function shortStartETH(address _collateralToken, uint256 _collateralAmount, uint256 _ethAmount) external onlyOwner {\r\n        AavePoolRouter pool = AavePoolRouter(_factory.getAavePool());\r\n        bool sResult = _supply(pool, _collateralToken, _collateralAmount);\r\n        require(sResult, \"Supply Failed\");\r\n        collateralList[_collateralToken] = _collateralAmount;\r\n\r\n        AaveETHRouter gate = AaveETHRouter(_factory.getAaveEth());\r\n        bool bResult = _borrowEth(gate, pool, _ethAmount);\r\n        require(bResult, \"Borrow Failed\");\r\n\r\n        UniswapV2Router uni = UniswapV2Router(_factory.getUni());\r\n        uint changeAmount = _ethToToken(uni, _collateralToken, _ethAmount)[1];\r\n        shortList[address(this)] = Short(_collateralToken, _ethAmount, changeAmount);\r\n    }\r\n\r\n    // token to token\r\n    function shortStart(address _collateralToken, uint256 _collateralAmount, address _shortToken, uint256 _shortAmount) external onlyOwner {\r\n    }\r\n\r\n    function _supply(AavePoolRouter router, address _token, uint256 _amount) internal returns (bool) {\r\n        try router.deposit(_token, _amount, address(this), 0) {\r\n            return true;\r\n        }\r\n        catch {\r\n            return false;\r\n        }\r\n    }\r\n\r\n    function _borrowEth(AaveETHRouter router, AavePoolRouter pool, uint256 _ethAmount) internal returns (bool) {\r\n        try router.borrowETH(address(pool), _ethAmount, 2, 0) {\r\n            return true;\r\n        }\r\n        catch {\r\n            return false;\r\n        }\r\n    }\r\n\r\n    function _borrow(address _token, uint256 _amount) internal returns (bool) {\r\n        return false;\r\n    }\r\n\r\n    // ETH => DAI\r\n    function _ethToToken(UniswapV2Router router, address _token, uint256 _ethAmount) internal returns (uint[] memory) {\r\n        uint tokenAmount = _getAmountToken(router, _token, _ethAmount)[1];\r\n        address[] memory path = new address[](2);\r\n        path[0] = router.WETH();\r\n        path[1] = _token;\r\n        uint deadline = block.timestamp + 100;\r\n\r\n        uint[] memory amounts = router.swapExactETHForTokens{value : uint(_ethAmount)}(tokenAmount, path, payable(address(this)), deadline);\r\n        require(amounts[0] != 0, \"ETH => TOKEN FAIL\");\r\n\r\n        return amounts;\r\n    }\r\n\r\n    function _getAmountToken(UniswapV2Router router, address _token, uint256 _ethAmount) internal view returns (uint[] memory) {\r\n        address[] memory path = new address[](2);\r\n        path[0] = router.WETH();\r\n        path[1] = _token;\r\n\r\n        return router.getAmountsOut(_ethAmount, path);\r\n    }\r\n\r\n    // -------------------------------------------------------------------------\r\n    function shortEndEth() external onlyOwner {\r\n        Short memory shorted = shortList[address(this)];\r\n\r\n        UniswapV2Router uni = UniswapV2Router(_factory.getUni());\r\n        _tokenToEth(uni, shorted.token, shorted.amount);\r\n\r\n        AaveETHRouter gate = AaveETHRouter(_factory.getAaveEth());\r\n        AavePoolRouter pool = AavePoolRouter(_factory.getAavePool());\r\n        bool rResult = _repayEth(gate, pool, shorted.amount);\r\n        require(rResult, \"Repay Fail\");\r\n\r\n        bool wResult = _withdraw(pool, shorted.token, collateralList[shorted.token]);\r\n        require(wResult, \"Withdraw Fail\");\r\n\r\n        collateralList[shorted.token] = 0;\r\n        shortList[address(this)] = Short(address(0), 0, 0);\r\n    }\r\n\r\n    // DAI to Token / ETH\r\n    // DAI => ETH\r\n    function _tokenToEth(UniswapV2Router router,address _token, uint256 _ethAmount) internal returns (uint[] memory) {\r\n        uint tokenAmount = _getAmountEth(router, _token, _ethAmount)[0];\r\n\r\n        address[] memory path = new address[](2);\r\n        path[0] = _token;\r\n        path[1] = router.WETH();\r\n        uint deadline = block.timestamp + 100;\r\n\r\n        uint[] memory amounts = router.swapExactTokensForETH(tokenAmount, _ethAmount, path, address(this), deadline);\r\n        require(amounts[0] != 0, \"TOKEN => ETH FAIL\");\r\n\r\n        return amounts;\r\n    }\r\n\r\n    function _getAmountEth(UniswapV2Router router, address _token, uint256 _ethAmount) internal view returns (uint[] memory) {\r\n        address[] memory path = new address[](2);\r\n        path[0] = _token;\r\n        path[1] = router.WETH();\r\n\r\n        return router.getAmountsIn(_ethAmount, path);\r\n    }\r\n\r\n    function _repayEth(AaveETHRouter router, AavePoolRouter pool, uint256 _ethAmount) internal returns (bool) {\r\n        try router.repayETH{value : _ethAmount}(address(pool), _ethAmount, 2, address(this)) {\r\n            return true;\r\n        }\r\n        catch {\r\n            return false;\r\n        }\r\n    }\r\n\r\n    function _repay(uint256 amount) internal returns (bool) {\r\n        return false;\r\n    }\r\n\r\n    function _withdraw(AavePoolRouter pool, address _token, uint256 _amount) internal returns (bool) {\r\n        try pool.withdraw(_token, _amount, address(this)) {\r\n            return true;\r\n        }\r\n        catch {\r\n            return false;\r\n        }\r\n    }\r\n\r\n    // View\r\n    // -------------------------------------------------------------------------\r\n    function getCollateral(address _token) external view returns (uint) {\r\n        return collateralList[_token];\r\n    }\r\n\r\n    function getShort(address _token) external view returns (address, uint, uint) {\r\n        Short memory shorted = shortList[_token];\r\n        return (shorted.token, shorted.amount, shorted.price);\r\n    }\r\n\r\n    receive() external payable {\r\n        emit Receive(msg.sender, msg.value);\r\n    }\r\n}\r\n",
  "sourcePath": "C:\\Users\\Dean\\Desktop\\InteliJ\\sail_contract\\contracts\\SubWallet.sol",
  "compiler": {
    "name": "solc",
    "version": "0.8.14+commit.80d49f37.Emscripten.clang"
  },
  "schemaVersion": "3.4.7",
  "updatedAt": "2022-08-10T22:28:25.596Z",
  "devdoc": {
    "kind": "dev",
    "methods": {},
    "version": 1
  },
  "userdoc": {
    "kind": "user",
    "methods": {},
    "version": 1
  }
}